:020000020000FC
:040000000C9422003A
:04000C000C946300ED
:100040000C946E000FEF0DBF18E01EBF3F065B4F14
:10005000666D7D077F67777C585E797100E8009355
:10006000610003E0009361000FEF0AB900E00BB9F3
:100070000FE007B900E008B900E004B90FE005B9E6
:1000800001E00093680003E000936B0001E000933F
:100090006E0000E00093C1000E945E0020E07894B2
:1000A00028B9ECE4F0E0E40F04910BB9F9CF15E0C6
:1000B0000AEF0A95F1F71A95D9F7089505E005BDFD
:1000C0000BEE06BD0895189903C0239524FD2FE07B
:1000D000199918952A9527FD20E018950BEE06BD75
:1000E000A89A6A9521F4439544FD40E064E618958A
:00000001FF
