:020000020000FC
:040000000C9422003A
:04000C000C946900E7
:100040000C9478000FEF0DBF18E01EBF3F065B4F0A
:10005000666D7D077F67777C585E797100E8009355
:10006000610003E0009361000FEF0AB900E00BB9F3
:100070000FE007B900E008B90CE004B903E005B9E6
:1000800001E00093680003E000936B0001E000933F
:100090006E0000E00093C1000E94640020E040E098
:1000A00050E070E1789428B9ECE4F0E070FD06C00F
:1000B000E40F04912A9A2B980BB9F5CFE50F049120
:1000C0002B9A2A980BB9EFCF05E005BD0BEE06BDC4
:1000D000089580FD189581E094E1189903C0239557
:1000E00024FD2FE0199918952A9527FD20E01895F1
:1000F00072950BEE06BDA89A80FF03C09A9509F48D
:1001000080E06A9559F464E643950AE04013189537
:0E01100040E0539506E05013189550E0189506
:00000001FF
